:020000040800F2
:1000000000000220E1240008A1220008A722000825
:10001000AD220008B3220008B92200080000000049
:10002000000000000000000000000000BF220008E7
:10003000CD22000800000000DB220008E9220008B1
:100040003125000831250008312500083125000838
:100050003125000831250008312500083125000828
:100060003125000831250008312500083125000818
:100070003125000831250008312500083125000808
:1000800031250008312500083125000831250008F8
:10009000F522000831250008312500083125000827
:1000A00031250008312500083125000831250008D8
:1000B00009230008312500083125000831250008F2
:1000C00031250008312500083125000831250008B8
:1000D00031250008312500083125000831250008A8
:1000E0003125000831250008312500083125000898
:1000F0003125000831250008312500083125000888
:100100003125000831250008312500083125000877
:100110003125000831250008312500083125000867
:100120003125000831250008312500083125000857
:100130003125000800000000000000003125000803
:100140001D2300083125000831250008312500084D
:100150003125000831250008312500083125000827
:100160003125000831250008312500083125000817
:1001700031250008312500080000000000000000C3
:080180003125000831250008BB
:1001900010B5054C237833B9044B13B10448AFF3C1
:1001A00000800123237010BDC40000200000000067
:1001B000D070000808B5034B1BB103490348AFF3E7
:1001C000008008BD00000000C8000020D0700008BA
:1001D00001F0FF01102A2BDB10F0070F08D010F8F8
:1001E000013B013A8B422DD010F0070F42B3F6D1FC
:1001F000F0B441EA012141EA014122F007047FF015
:1002000000070023F0E80256083C85EA010586EA6B
:10021000010685FA47F5A3FA87F586FA47F6A5FAA7
:1002200087F68EB9EED1F0BC01F0FF0102F00702B3
:1002300032B110F8013B013A83EA010313B1F8D15E
:100240000020704701387047002D06BF354603383F
:10025000073815F0010F07D1013015F4807F02BF78
:10026000013015F4C03F0130F0BC0138704700BFC9
:1002700053B94AB9002908BF00281CBF4FF0FF310D
:100280004FF0FF3000F06EB9ADF1080C6DE904CE0F
:1002900000F006F8DDF804E0DDE9022304B0704761
:1002A0002DE9F047089D04468C46002B40F08380E2
:1002B0008A42174647D9B2FA82F242B1C2F120000F
:1002C00024FA00F09140974040EA010C94404FEA34
:1002D0001748230CBCFBF8F61FFA87FE08FB16C173
:1002E00043EA014306FB0EF1994209D9FB1806F1D6
:1002F000FF3080F01981994240F21681023E3B4462
:100300005B1AA4B2B3FBF8F008FB103344EA0344D1
:1003100000FB0EFEA64509D93C1900F1FF3380F021
:100320000581A64540F2028102383C4440EA06407D
:10033000A4EB0E0400261DB1D4400023C5E9004300
:100340003146BDE8F08702B9FFDEB2FA82F2002A38
:1003500050D1CB1B4FEA174E1FFA87F80126B3FB8B
:10036000FEFC210C0EFB1C3341EA034108FB0CF39D
:100370008B4207D979180CF1FF3002D28B4200F280
:10038000E9808446C91AA3B2B1FBFEF00EFB10113E
:1003900043EA014408FB00F8A04507D93C1900F1E5
:1003A000FF3302D2A04500F2D9801846A4EB08041E
:1003B00040EA0C40BFE78B4209D9002D00F0B18024
:1003C0000026C5E9000130463146BDE8F087B3FAA2
:1003D00083F6002E4AD18B4202D3824200F2B880CB
:1003E000841A61EB030101208C46002DA8D0C5E9D9
:1003F000004CA5E7C2F1200320FA03F6974001FA6A
:1004000002F04FEA174ED9403043030CB1FBFEF621
:100410001FFA87F80EFB161143EA014306FB08F1A9
:10042000994204FA02F409D9FB1806F1FF3C80F066
:100430008D80994240F28A80023E3B445B1A81B231
:10044000B3FBFEF00EFB103341EA034100FB08F35F
:100450008B4207D9791800F1FF3C73D28B4271D9D6
:1004600002383944CB1A40EA064678E7C6F1200C38
:1004700003FA06F422FA0CF31C4320FA0CF701FAF3
:1004800006F34FEA144E21FA0CF11F433B0CB1FB6B
:10049000FEF91FFA84F80EFB191143EA014109FB2A
:1004A00008FA8A4502FA06F200FA06F308D961183A
:1004B00009F1FF3048D28A4546D9A9F10209214401
:1004C000A1EB0A01BFB2B1FBFEF00EFB101147EA2F
:1004D000014700FB08F8B84507D9E71900F1FF31DB
:1004E0002ED2B8452CD90238274440EA0940A7EB60
:1004F0000807A0FB02894F45C64649461AD317D0C4
:100500005DB1B3EB0E0267EB010707FA0CFCF2409A
:100510004CEA0202F740C5E9002700263146BDE853
:10052000F0872E4628460BE70646E9E61846FDE624
:100530004345E5D2B8EB020E69EB04010138DFE771
:100540000846D2E760468DE78146B9E7664675E71B
:1005500030464AE7ACF1020C394413E702383C4418
:1005600024E700BF704700BF80B584B000AF0346EA
:10057000FB710023FB730023BB7307E0FB7B01339C
:10058000FB73FB7BC82B01D900232DE0184804F036
:1005900077FD0346032BF1D0F91D4FF47A73012246
:1005A000134804F07EF90023FB7307E0FB7B013363
:1005B000FB73FB7BC82B01D9002315E00C4804F02A
:1005C0005FFD0346042BF1D007F10E014FF47A735F
:1005D0000122074804F0A1FA00BF054804F050FDCD
:1005E0000346022BF9D0BB7B18461037BD4680BDB1
:1005F0004802002080B582B000AF03460A46FB7176
:100600001346BB71BB79002B06D001224FF48071D9
:100610000D4803F08FFC05E000224FF480710A487A
:1006200003F088FC00228021074803F083FCFB795B
:100630001846FFF799FF01228021034803F07AFC56
:1006400000BF0837BD4680BD0004024080B582B0BF
:1006500000AF03460A46FB711346BB71FB790021CC
:100660001846FFF7C7FFBB7901211846FFF7C2FF05
:1006700000BF0837BD4680BD80B485B000AF78604C
:1006800041F28833FB6008E0FB68013BFB60FB68DC
:10069000022BF9D87B68013B7B607B68022BF6D884
:1006A00000BF00BF1437BD465DF8047B70470000F3
:1006B00080B500AF01220421814803F03BFC0122F8
:1006C00080217F4803F036FC012240217C4803F062
:1006D00031FC012204217A4803F02CFC0520FFF7AD
:1006E000CBFF00220421764803F024FC0520FFF70D
:1006F000C3FF01220421724803F01CFC0520FFF710
:10070000BBFF012280216E4803F014FC0021112060
:10071000FFF770FF0A20FFF7AFFF00213620FFF739
:1007200095FF05213A20FFF791FF0021B220FFF746
:1007300061FF01210C20FFF75DFF01210C20FFF775
:1007400059FF01210020FFF755FF01213320FFF75A
:1007500051FF01213320FFF74DFF3521B720FFF76F
:1007600075FF2821BB20FFF771FF3C21C020FFF758
:100770006DFF0121C220FFF769FF0B21C320FFF7A6
:1007800065FF2021C420FFF761FF0F21C620FFF77E
:100790005DFF0021D020FFF72DFF0121A420FFF7EE
:1007A00029FF0121A120FFF725FF0021E020FFF70D
:1007B00021FF0121D020FFF71DFF01210120FFF7BC
:1007C00019FF01210820FFF715FF01210F20FFF776
:1007D00011FF01211120FFF70DFF01212A20FFF752
:1007E00009FF01213620FFF705FF01215520FFF702
:1007F00001FF01214420FFF7FDFE01213A20FFF710
:10080000F9FE01210B20FFF7F5FE01210620FFF77D
:10081000F1FE01211120FFF7EDFE01212020FFF75D
:10082000E9FE0021E120FFF7E5FE0121D020FFF7DE
:10083000E1FE01210220FFF7DDFE01210720FFF785
:10084000D9FE01210A20FFF7D5FE01210B20FFF779
:10085000D1FE01211820FFF7CDFE01213420FFF742
:10086000C9FE01214320FFF7C5FE01214A20FFF701
:10087000C1FE01212B20FFF7BDFE01211B20FFF748
:10088000B9FE01211C20FFF7B5FE01212220FFF750
:10089000B1FE01211F20FFF7ADFE00212920FFF747
:1008A000A9FEFF215120FFF7D1FEB0215520FFF70F
:1008B000CDFE4FF6FF7000F005F800BF80BD00BF11
:1008C0000004024080B584B000AF0346FB80F023F3
:1008D000BB60BA6813469B0013449B01BB600021B8
:1008E0002A20FFF787FE01210020FFF783FE012168
:1008F0000020FFF77FFE01210020FFF77BFE012192
:10090000EF20FFF777FE00212B20FFF773FE012178
:100910000020FFF76FFE01210020FFF76BFE012191
:100920000120FFF767FE01213F20FFF763FE002152
:100930002C20FFF75FFE00228021144803F0FAFA12
:1009400001224FF48071114803F0F4FA0023FB6098
:100950000EE0FB881B0A9BB2DBB21846FFF704FED1
:10096000FB88DBB21846FFF7FFFDFB680133FB6035
:10097000FA68BB689A42ECD301228021034803F055
:10098000D9FA00BF1037BD4680BD00BF0004024049
:1009900080B483B000AF7860094A7B6852F8233096
:1009A000012B06D1064A7B68002142F8231001235F
:1009B00000E0002318460C37BD465DF8047B704705
:1009C000E000002080B500AF844B5B68844A536030
:1009D000844B5B68814A53601021834803F092FA8C
:1009E00003461A467F4B5A607D4B5A687B4B5B68C7
:1009F0009A422CD1794B5A687A4B5B689A4226D13D
:100A00007A4B5A68764B5B689A4214D0744B5B6899
:100A1000764A5360754B5B68002B18D1744B642287
:100A20001A60744B01225A60724B00221A60714B9B
:100A300000229A600BE06E4B1B68013B6C4A13600E
:100A40006B4B1B68002B02D1684B01225A60634B31
:100A50009B68634A9360634B9B68604A9360802104
:100A6000614803F04FFA03461A465E4B9A605C4BAE
:100A70009A685A4B9B689A422CD1584B9A68594BAA
:100A80009B689A4226D1594B9A68554B9B689A426B
:100A900014D0534B9B68554A9360544B9B68002B72
:100AA00018D1534B64221A60524B01229A60514B69
:100AB00000225A604F4B00221A600BE04C4B1B681F
:100AC000013B4B4A13604A4B1B68002B02D1474B3A
:100AD00001229A60414B1B68414A1360414B1B68DD
:100AE0003E4A13604FF400513F4803F00BFA0346AF
:100AF0001A463C4B1A603A4B1A68384B1B689A42AC
:100B00002CD1364B1A68374B1B689A4226D1374B8B
:100B10001A68334B1B689A4214D0314B1B68334A16
:100B20001360324B1B68002B18D1314B64221A60C2
:100B3000304B01221A602F4B00229A602D4B00226D
:100B40005A600BE02A4B1B68013B294A1360284B73
:100B50001B68002B02D1254B01221A601F4BDB685A
:100B60001F4AD3601F4BDB681C4AD3600221224816
:100B700003F0C8F903461A461A4BDA60184BDA68D4
:100B8000164BDB689A4226D1144BDA68154BDB68AA
:100B90009A4220D1154BDA68114BDB689A420ED08D
:100BA0000F4BDB68114AD360104BDB68002B12D16E
:100BB0000F4B64221A600F4B0122DA600BE00C4BE2
:100BC0001B68013B0A4A1360094B1B68002B02D1CA
:100BD000064B0122DA6000BF80BD00BF200000206C
:100BE00030000020100000200008024044000020D7
:100BF00040000020E00000200000024080B500AF6F
:100C0000094B03221A70084B22225A70064BF0221D
:100C10009A70054B0122DA70044B034A04490548D7
:100C200002F080FA00BF80BDF80000200C02002016
:100C300058010020E401002080B500AF194801F000
:100C400053FD184801F022FE0346174A1360174B64
:100C500007221A70154B62225A70144BF0229A70B8
:100C6000124B0122DA70104B1B681B0EDAB20F4BCD
:100C70001A710D4B1B681B0CDAB20C4B5A710A4BE4
:100C80001B681B0ADAB2094B9A71074B1B68DAB270
:100C9000064BDA71064B054A0649074802F042FA4C
:100CA00000BF80BD9C0100200C010020F00000204E
:100CB0004402002018030020F0020020B0B584B0E8
:100CC00004AF1D4B5B791C461B4B9B791D461A4B91
:100CD000DB791A46184B1B7A1946174B5B7A184674
:100CE000154B9B7A03930290019100922B4622466A
:100CF0001249134805F024F8124B002202924FF6D5
:100D0000FF7201925A6800921B680D4A14210A2052
:100D100001F0C8F80C4B02221A700B4B6E225A706D
:100D2000094B01229A70094B074A0949094802F008
:100D3000F9F900BFBD46B0BD10010020E870000801
:100D40001002002000000020F000002044020020DB
:100D500018030020F002002080B500AF554B1B683F
:100D6000002B63D0544B1B68002B5FD1534B0622E2
:100D70001A70524B67225A70504B01229A7004F03D
:100D80009FFF03465A1E4E4B83FB02131344D91197
:100D9000D317C91A0B461B025B1AD11ACBB2013307
:100DA000DAB2464BDA7004F08BFF03465A1E444B0E
:100DB00083FB02131344D911D317C91A0B461B0224
:100DC0005B1AD11ACBB20133DAB23C4B1A7104F080
:100DD00077FF03465A1E3A4B83FB02131344D91183
:100DE000D317C91A0B461B025B1AD11ACBB20133B7
:100DF000DAB2324B5A7104F063FF03465A1E304B8D
:100E000083FB02131344D911D317C91A0B461B02D3
:100E10005B1AD11ACBB20133DAB2284B9A71294B43
:100E2000264A2949294802F07DF941E0214B1B68F7
:100E3000002B3DD0204B1B68002B39D0244BDB7896
:100E40001A461E4BDB7801339A422CD1204B1B797A
:100E50001A461A4B1B7901339A4224D11C4B5B79F9
:100E60001A46164B5B7901339A421CD1184B9B7979
:100E70001A46124B9B7901339A4214D10122012167
:100E8000144803F057F80D4B02221A700B4B6722DF
:100E90005A700A4B02229A700A4B084A0A490B48B8
:100EA00002F040F904E042F2107001F0B5FBFFE7F8
:100EB00000BF80BD280100202C010020F000002090
:100EC000818080804402002018030020F00200206E
:100ED000A00200200004024080B588B004AF01F0F9
:100EE00029FB00F001FA00F0D5FB00F0ADFA00F0AC
:100EF00085FB00F04DFB00F0F9FA00F053FA894849
:100F000002F0CCF8884802F0C9F80221854802F0C6
:100F1000F6FA0221844802F0F2FA844804F03EFA1C
:100F2000834801F0E1FB834B08221A61814B0022C8
:100F30009A60804B0022DA607E4B40F2A2721A6007
:100F40007D4B08221A617C4B00229A607A4B00226A
:100F5000DA60794B40F212721A60002004F010FF40
:100F600002460B461346184604F07CFE4FF47A7096
:100F700000F0E0FCFFF79CFB00F038FE6F49704882
:100F800004F0DEFE6F4B002202924FF6FF720192D8
:100F90005A6800921B686A4A14210A2000F082FFF6
:100FA0000123FB600320FFF7F3FC0346002B07D06F
:100FB000FB680133FB60FB68042B01D10123FB605C
:100FC000FB68032B41D0FB68032B5ADCFB68012B29
:100FD00003D0FB68022B1CD053E05B49584804F057
:100FE000AFFE5A4B002202924FF6FF7201925A68EE
:100FF00000921B68524AC8210A2000F053FF544B4C
:101000001B68002B3FD0524B00221A60FFF714FEE2
:1010100039E050494A4804F093FE4C4B00220292BA
:101020004FF6FF7201925A6800921B68444AC82129
:101030000A2000F037FF464B1B68002B25D0444B9D
:1010400000221A60FFF73AFE1FE043493C4804F0D3
:1010500077FE3E4B002202924FF6FF7201925A68D1
:1010600000921B68364AC8210A2000F01BFF384B4B
:101070001B68002B0BD0364B00221A60FFF76CFE6A
:1010800005E000BF04E000BF02E000BF00E000BFD9
:10109000FB68032B00F0BE80FB68032B00F3078185
:1010A000FB68012B03D0FB68022B5FD0FFE02B4BCA
:1010B0001B68002B05D04FF47A7000F03BFCFFF763
:1010C0009DFD274B1B68002B00F0F380244B002272
:1010D0001A6000237B600DE0BB681B02BB607B686D
:1010E0000433204AD35C1A46BB681344BB607B6858
:1010F00001337B607B68032BEEDDBA681A49104828
:1011000004F01EFE0F4B002202924FF6FF72019276
:101110005A6800921B680A4A28210A2000F0C2FE81
:10112000C7E000BFF0020020E4010020A802002078
:101130009C01002018030020580100200C710008B9
:101140001002002000000020187100080800002094
:1011500000010020247100083071000838010020CF
:1011600004010020700100203C7100080120FFF7FD
:101170000FFC0346002B05D0514BAA221A70514B8D
:1011800001221A600220FFF703FC0346002B05D062
:101190004B4BFF221A704B4B01221A600020FFF7C5
:1011A000F7FB0346002B05D0454B00221A70454B38
:1011B00001221A60434B1B68002B23D0414B0022B5
:1011C0001A60414B10221A703F4B09225A703E4B55
:1011D0002E229A703C4BF022DA703B4B02221A719D
:1011E000374B1A78384B5A71354B1A78364B9A71FF
:1011F000334B1A78344BDA71344B334A344935481F
:1012000001F090FF344B1B68002B54D0324B00226E
:101210001A6050E0314B1B68002B12D12A4B02227E
:101220001A70294B27225A70274B01229A70274B9C
:10123000254A2749274801F075FF284B01221A60EB
:101240003BE0274B1B68002B37D1234B1B68002B3F
:1012500033D0214B00221A601B4B06221A701A4B06
:1012600027225A70184B02229A701E4BDB780133EA
:10127000DAB2154BDA701B4B1B790133DAB2124B21
:101280001A71184B5B790133DAB20F4B5A71154B57
:101290009B790133DAB20C4B9A710C4B0A4A0C4918
:1012A0000C4801F03FFF0E4B01221A6005E000BF21
:1012B00078E600BF76E600BF74E600BF72E600BFC6
:1012C0002001002024010020F80000200C02002052
:1012D00058010020E4010020040100202801002022
:1012E0002C0100207001002080B594B000AF07F100
:1012F000200330220021184604F0ACFC07F10C0357
:1013000000221A605A609A60DA601A610023BB609A
:10131000224B1B6C214A43F0805313641F4B1B6C00
:1013200003F08053BB60BB6800237B601C4B1B68D1
:101330001B4A43F480431360194B1B6803F480433A
:101340007B607B6802233B620123FB6210233B63CB
:101350000023BB6307F12003184602F005FE034695
:10136000002B01D000F0E0FA0F23FB6000233B616B
:1013700000237B610023BB610023FB6107F10C03A9
:101380000021184603F068F80346002B01D000F056
:10139000CBFA00BF5037BD4680BD00BF00380240C9
:1013A0000070004080B584B000AF3B4600221A6058
:1013B0005A609A60DA60214B214A1A601F4B002262
:1013C0005A601E4B00229A601C4B00221A611B4B74
:1013D00000221A76194B002283F82020174B002296
:1013E000DA62164B174A9A62144B0022DA60134BEA
:1013F0000122DA61114B002283F830200F4B0122C9
:101400005A610E4801F02CF90346002B01D000F080
:101410008BFA02233B6001237B600023BB603B46C9
:101420001946064801F040FA0346002B01D000F0AF
:101430007BFA00BF1037BD4680BD00BF9C01002075
:10144000002001400100000F80B58AB000AF254B9D
:10145000254A1A60234B08225A60224B00229A60C8
:10146000204B0022DA601F4B4FF480321A611D4B73
:1014700000225A611B4B00221A761A4B00225A7620
:10148000184B00229A76174B0022DA76154B002271
:101490001A77144B00225A77124801F023FC0346B6
:1014A000002B01D000F040FA01233B6200237B6156
:1014B00000233B6100233B6000237B600023BB6073
:1014C0000023FB600023BB610123FB610E237B62D1
:1014D0003B461946034801F001FD00BF2837BD46D1
:1014E00080BD00BFF00200200064004080B58AB0DB
:1014F00000AF254B254A1A60234B08225A60224B25
:1015000000229A60204B0022DA601F4B4FF4803299
:101510001A611D4B00225A611B4B00221A761A4B8E
:1015200000225A76184B00229A76174B0022DA7660
:10153000154B00221A77144B00225A77124801F0FB
:10154000D1FB0346002B01D000F0EEF901233B62F2
:101550000E237B6100233B6100233B6000237B6003
:101560000023BB600023FB600023BB610123FB6100
:101570000E237B623B461946034801F0AFFC00BFD7
:101580002837BD4680BD00BFE40100200068004050
:1015900080B500AF174B184A1A60164B4FF4827291
:1015A0005A60144B00229A60124B0022DA60114BF1
:1015B00002221A610F4B00225A610E4B4FF4007247
:1015C0009A610C4B0822DA610A4B00221A62094B1D
:1015D00000225A62074B00229A62064B0A22DA6204
:1015E000044803F0D5F80346002B01D000F09CF925
:1015F00000BF80BD480200200030014080B586B0A9
:1016000000AF07F1080300221A605A609A60DA609E
:101610003B4600221A605A601D4B4FF080421A6010
:101620001B4B0F225A601A4B00229A60184B42F251
:101630000F72DA60164B00221A61154B00229A6174
:10164000134803F05BFE0346002B01D000F06CF959
:101650004FF48053BB6007F1080319460C4804F0AF
:1016600015F80346002B01D000F05EF900233B6023
:1016700000237B603B461946054804F031FA0346D7
:10168000002B01D000F050F900BF1837BD4680BDD7
:10169000A802002080B588B000AF07F10C0300223B
:1016A0001A605A609A60DA601A610023BB60354B99
:1016B0001B6B344A43F004031363324B1B6B03F080
:1016C0000403BB60BB6800237B602E4B1B6B2D4A61
:1016D00043F0010313632B4B1B6B03F001037B608F
:1016E0007B6800233B60274B1B6B264A43F00203B9
:1016F0001363244B1B6B03F002033B603B68002227
:1017000040F28531204802F015FC42F2F003FB6004
:1017100000233B6101237B6107F10C0319461B4841
:1017200002F054FA0223FB6000233B6101237B613A
:1017300007F10C031946164802F048FA40F28533C7
:10174000FB6001233B6100237B610023BB6107F148
:101750000C0319460C4802F039FA4FF44063FB6061
:1017600002233B6100237B610323BB610723FB61F1
:1017700007F10C031946054802F028FA00BF20378C
:10178000BD4680BD0038024000040240000802400F
:101790000000024080B582B000AF7860FFF712F918
:1017A00000F0E4F800BF0837BD4680BD80B584B0C6
:1017B00000AF78607B681B68484A934254D1484B1D
:1017C000484A0021786801F088FD0346002B49D182
:1017D000454B01221A60454B1B68002B14D0434B2C
:1017E00000221A600123FB600AE0FB6807333C49D2
:1017F000FA680A4411783E4AD154FB680133FB6011
:10180000FB68032BF1DD11E00023BB600BE0344AE1
:10181000BB6813441978364ABB6813440A461A70E9
:10182000BB680133BB60BB68072BF0DD2C4B1B781A
:1018300003F0F003102B17D12B4B00221A602B4B17
:1018400001221A602B4B30221A702A4B08225A7040
:10185000284B19229A70284B264A2849284801F01B
:1018600061FC01E000F060F87B681B68254A934248
:101870002FD1254B254A0021786801F02EFD034623
:10188000002B24D1224B01221A601F4B1B7803F03E
:10189000F003302B1DD11E4B00221A60134B012286
:1018A0001A601C4B21221A701B4B1A78194B5A7064
:1018B000194B1A78174B9A70174B1A78154BDA7028
:1018C000164B144A1649174801F02CFC01E000F0B1
:1018D0002BF800BF1037BD4680BD00BF006400403C
:1018E000A002002030030020000100200801002099
:1018F00010010020F0000020440200201803002006
:10190000F0020020006800407001002080010020EB
:1019100004010020F8000020200100200C0200201B
:1019200058010020E401002080B400AF72B600BF6F
:10193000FEE7000080B483B000AF7860084B00225F
:101940001A607B68074A82FB03129210DB17D31AD6
:10195000054A136000BF0C37BD465DF8047B704735
:1019600038010020676666663C01002080B400AF45
:10197000144B1B68013B134A1360124B1B68002B6E
:1019800002DC114B00221A60104B1B68013B0F4A0E
:1019900013600E4B1B68002B02DC0D4B01221A60FA
:1019A0000C4B1B68013B0B4A13600A4B1B68002B56
:1019B00002DC094B01221A6000BFBD465DF8047BC2
:1019C000704700BF34010020300100203C0100209E
:1019D00038010020440100204001002080B582B081
:1019E00000AF0346FB71002280210C4802F0A2FAEE
:1019F00000224FF48071094802F09CFAF91D4FF063
:101A0000FF330122064802F04CFF012280210348E7
:101A100002F090FA00BF0837BD4680BD00040240C6
:101A20004802002080B584B000AF786039600022A1
:101A30008021164802F07EFA01224FF4807113488B
:101A400002F078FA15E03B684FF6FF72934228BF28
:101A50001346FB81FA894FF0FF3379680C4802F096
:101A600020FFFB897A6813447B60FB893A68D31AAC
:101A70003B603B68002BE6D101228021034802F045
:101A800059FA00BF1037BD4680BD00BF00040240B8
:101A90004802002080B582B000AF0346FB710022EF
:101AA00080210C4802F046FA01224FF48071094867
:101AB00002F040FAF91D4FF0FF330122064802F010
:101AC000F0FE01228021034802F034FA00BF0837FB
:101AD000BD4680BD000402404802002080B582B0AF
:101AE00000AF0346FB713620FFF778FFFB79032B2D
:101AF0001AD801A252F823F0091B0008111B000894
:101B0000191B0008211B0008C020FFF7C3FF0CE0D1
:101B1000A020FFF7BFFF08E00020FFF7BBFF04E0B5
:101B20006020FFF7B7FF00E000BF00BF0837BD46E9
:101B300080BD00BF90B587B000AF0446084611468F
:101B40001A462346FB800346BB800B467B80134628
:101B50003B8000228021244802F0ECF9FB88FB82C4
:101B60007B88BB82BB887B823B883B822A20FFF735
:101B700035FFFB8A1B0A9BB2DBB23B73FB8ADBB2ED
:101B80007B73BB8A1B0A9BB2DBB2BB73BB8ADBB223
:101B9000FB7307F10C0304211846FFF743FF2B20CA
:101BA000FFF71CFF7B8A1B0A9BB2DBB23B727B8A6E
:101BB000DBB27B723B8A1B0A9BB2DBB2BB723B8AF5
:101BC000DBB2FB7207F1080304211846FFF72AFF76
:101BD0002C20FFF703FF01228021034802F0AAF91D
:101BE00000BF1C37BD4690BD0004024090B58BB0CD
:101BF00000AF192000F010FD00220421464802F039
:101C000099F9192000F008FD01220421424802F050
:101C100091F9322000F000FD3A20FFF7DFFE552059
:101C2000FFF738FFB220FFF7D9FE3C4A07F1200347
:101C300092E8030018600433197007F120030521AE
:101C40001846FFF7EFFE0120FFF748FFB720FFF728
:101C5000C5FE3520FFF71EFFBB20FFF7BFFE192092
:101C6000FFF718FFC020FFF7B9FE2C20FFF712FF87
:101C7000C220FFF7B3FE0120FFF70CFFC320FFF7E0
:101C8000ADFE1220FFF706FFC420FFF7A7FE2020BD
:101C9000FFF700FFC620FFF7A1FE0F20FFF7FAFEB7
:101CA000D020FFF79BFEA420FFF7F4FEA120FFF752
:101CB000F1FEE020FFF792FE194B07F110040FCB65
:101CC00007C4238007F110030E211846FFF7AAFE70
:101CD000E120FFF783FE134B3C460FCB07C4238064
:101CE0003B460E211846FFF79DFE2120FFF776FEAA
:101CF0001120FFF773FE1320FFF770FE2920FFF776
:101D00006DFE322000F088FC002000F00DF800BFCE
:101D10002C37BD4690BD00BF000402404C71000846
:101D2000547100086471000880B584B000AF0346A8
:101D3000FB80EF2340F23F1200210020FFF7FAFE64
:101D400000228021164802F0F5F80023FB8119E0FB
:101D50000023BB8110E0FB881B0A9BB2DBB23B7205
:101D6000FB88DBB27B7207F1080302211846FFF7FC
:101D700059FEBB890133BB81BB89EF2BEBD9FB89B2
:101D80000133FB81FB89B3F5A07FE1D301228021E0
:101D9000034802F0CFF800BF1037BD4680BD00BF3A
:101DA0000004024082B090B589B000AF7B63034667
:101DB000FB800B46BB801346FB7000228021384815
:101DC00002F0B8F897F834309AB2FB8813449BB20B
:101DD000013B9CB297F835309AB2BB8813449BB252
:101DE000013B9BB2B988F8882246FFF7A3FE002387
:101DF000FB6143E0BA6BFB78203B97F8351001FBA1
:101E000003F31946FB690B445B0013441B887B6199
:101E10000023BB6129E07A69BB6902FA03F303F48A
:101E20000043002B0ED0BB8F1B0A9BB2DBB23B746E
:101E3000BB8FDBB27B7407F1100302211846FFF75A
:101E4000F1FD0FE0B7F840301B0A9BB2DBB23B73E9
:101E5000B7F84030DBB27B7307F10C030221184660
:101E6000FFF7E0FDBB690133BB6197F834301A46D8
:101E7000BB699342CFD3FB690133FB6197F83530DF
:101E80001A46FB699342B5D301228021044802F02F
:101E900051F800BF2437BD46BDE8904002B07047FE
:101EA0000004024082B080B586B004AF3A607B6126
:101EB0000346FB800B46BB8000228021224802F0B3
:101EC00039F82EE0FB883A7D1344B3F5A07F13DB8D
:101ED0000023FB807B7D9AB2BB881344BB80BB8808
:101EE0007A7D1344EF2B21DC3B681B78202B03D138
:101EF0003B6801333B6014E03B681A78B988F88886
:101F00003B8C0293BB8B0193BB6900937B69FFF70A
:101F100049FF3B7D9AB2FB881344FB803B68013349
:101F20003B603B681B78002BCCD100E000BF012256
:101F30008021054801F0FEFF00BF0837BD46BDE81F
:101F4000804002B0704700BF0004024080B483B0FC
:101F500000AF00237B60104B5B6C0F4A43F480435F
:101F600053640D4B5B6C03F480437B607B68002300
:101F70003B60094B1B6C084A43F080531364064BCB
:101F80001B6C03F080533B603B6800BF0C37BD46C1
:101F90005DF8047B704700BF0038024080B58AB00E
:101FA00000AF786007F1140300221A605A609A604B
:101FB000DA601A617B681B68174A934227D10023B5
:101FC0003B61164B5B6C154A43F480735364134BAF
:101FD0005B6C03F480733B613B690023FB600F4B38
:101FE0001B6B0E4A43F0010313630C4B1B6B03F096
:101FF0000103FB60FB6804237B610323BB610023B7
:10200000FB6107F114031946054801F0DFFD00BF2D
:102010002837BD4680BD00BF002001400038024087
:102020000000024080B58CB000AF786007F11C035F
:1020300000221A605A609A60DA601A617B681B6835
:102040004A4A93423ED14A4B1B680133484A1360C7
:10205000474B1B68012B0DD10023BB61454B1B6C0B
:10206000444A43F000731364424B1B6C03F000734B
:10207000BB61BB6900237B613E4B1B6B3D4A43F058
:10208000010313633B4B1B6B03F001037B617B6913
:102090004FF4C053FB6102233B6201237B620323A5
:1020A000BB620923FB6207F11C031946324801F0A9
:1020B0008DFD00220021142001F051FD142001F0BB
:1020C0006AFD4FE07B681B682C4A93424AD100238B
:1020D0003B61284B1B6C274A43F080631364254BFC
:1020E0001B6C03F080633B613B69214B1B68013330
:1020F0001F4A13601E4B1B68012B0DD10023FB6090
:102100001C4B1B6C1B4A43F000731364194B1B6C74
:1021100003F00073FB60FB680023BB60154B1B6B77
:10212000144A43F002031363124B1B6B03F00203C8
:10213000BB60BB686023FB6102233B6201237B62BF
:102140000323BB620923FB6207F11C0319460C48F9
:1021500001F03CFD00220021402001F000FD402064
:1021600001F019FD00BF3037BD4680BD006400405E
:102170004801002000380240000002400068004092
:102180000004024080B58AB000AF786007F1140304
:1021900000221A605A609A60DA601A617B681B68D4
:1021A000284A934249D100233B61274B5B6C264A66
:1021B00043F480535364244B5B6C03F480533B61C2
:1021C0003B690023FB60204B1B6B1F4A43F001035C
:1021D00013631D4B1B6B03F00103FB60FB680023C3
:1021E000BB60194B1B6B184A43F002031363164B79
:1021F0001B6B03F00203BB60BB68C0237B6102233F
:10220000BB610023FB6103233B6205237B6207F173
:10221000140319460D4801F0D9FC08237B61022301
:10222000BB610023FB6103233B6205237B6207F153
:1022300014031946064801F0C9FC00BF2837BD4603
:1022400080BD00BF00300140003802400000024065
:102250000004024080B584B000AF78607B681B68E2
:10226000B3F1804F15D10023FB600C4B1B6C0B4A64
:1022700043F001031364094B1B6C03F00103FB6083
:10228000FB68002200211C2001F069FC1C2001F0E9
:1022900082FC00BF1037BD4680BD00BF0038024041
:1022A00080B400AFFEE780B400AFFEE780B400AFBB
:1022B000FEE780B400AFFEE780B400AFFEE780B475
:1022C00000AF00BFBD465DF8047B704780B400AF2F
:1022D00000BFBD465DF8047B704780B400AF00BF0F
:1022E000BD465DF8047B704780B500AF00F074F91F
:1022F00000BF80BD80B500AF024801F026F900BFE5
:1023000080BD00BFF002002080B500AF024803F09E
:10231000B5F800BF80BD00BFA802002080B500AFA7
:10232000024801F012F900BF80BD00BFE4010020A7
:1023300080B400AF01231846BD465DF8047B7047AA
:1023400080B582B000AF7860396003F059FC034675
:1023500016221A604FF0FF3318460837BD4680BD7D
:1023600080B582B000AF78604FF0FF317868FFF73A
:10237000E7FFFEE780B586B000AFF860B9607A602D
:1023800000237B610AE0AFF300800146BB685A1C62
:10239000BA60CAB21A707B6901337B617A697B6863
:1023A0009A42F0DB7B6818461837BD4680BD80B581
:1023B00086B000AFF860B9607A6000237B6109E005
:1023C000BB685A1CBA601B781846AFF300807B6963
:1023D00001337B617A697B689A42F1DB7B6818463E
:1023E0001837BD4680BD80B483B000AF78604FF031
:1023F000FF3318460C37BD465DF8047B704780B448
:1024000083B000AF786039603B684FF400525A6087
:10241000002318460C37BD465DF8047B704780B436
:1024200083B000AF7860012318460C37BD465DF8D5
:10243000047B704780B485B000AFF860B9607A6003
:10244000002318461437BD465DF8047B7047000032
:1024500080B586B000AF7860144A154BD31A7B6103
:102460007B693B61134B1B68002B02D1114B124A55
:102470001A60104B1A687B6813443A699A4207D273
:1024800003F0BEFB03460C221A604FF0FF3309E055
:10249000084B1B68FB60074B1A687B681344054AAE
:1024A0001360FB6818461837BD4680BD0000022047
:1024B000000400004C0100206003002080B400AF45
:1024C000064BD3F88830054A43F47003C2F88830CD
:1024D00000BFBD465DF8047B704700BF00ED00E023
:1024E000DFF834D00D480E490E4A002302E0D458DC
:1024F000C4500433C4188C42F9D30B4A0B4C00234C
:1025000001E013600432A242FBD3FFF7D7FF03F0D0
:102510007DFBFEF7E1FC7047000002200000002078
:10252000C400002018880008C400002060030020B8
:10253000FEE7000080B500AF0E4B1B680D4A43F468
:10254000007313600B4B1B680A4A43F480631360EB
:10255000084B1B68074A43F480731360032001F0A3
:10256000F3FA0F2000F008F8FFF7F0FC00231846FC
:1025700080BD00BF003C024080B582B000AF7860F3
:10258000124B1A68124B1B7819464FF47A73B3FB3F
:10259000F1F3B2FBF3F3184601F00BFB0346002BFB
:1025A00001D001230EE07B680F2B0AD80022796846
:1025B0004FF0FF3001F0D3FA064A7B681360002326
:1025C00000E0012318460837BD4680BD54000020B6
:1025D0005C0000205800002080B400AF064B1B7840
:1025E0001A46064B1B681344044A136000BFBD46DD
:1025F0005DF8047B704700BF5C0000204C030020A6
:1026000080B400AF034B1B681846BD465DF8047BE1
:10261000704700BF4C03002080B584B000AF7860E5
:10262000FFF7EEFFB8607B68FB60FB68B3F1FF3F2C
:1026300005D00A4B1B781A46FB681344FB6000BFA9
:10264000FFF7DEFF0246BB68D31AFA689A42F7D852
:1026500000BF00BF1037BD4680BD00BF5C0000203A
:1026600080B584B000AF78600023FB737B68002BDB
:1026700001D1012333E07B681B6C002B09D1786802
:10268000FFF78CFC7B6800225A647B68002283F889
:102690003C207B681B6C03F01003002B18D17B6877
:1026A0001B6C23F4885323F0020343F002027B687F
:1026B0001A64786800F01AFA7B6800225A647B6812
:1026C0001B6C23F0030343F001027B681A6401E0F2
:1026D0000123FB737B68002283F83C20FB7B1846B8
:1026E0001037BD4680BD000080B485B000AF786073
:1026F0000023BB607B6893F83C30012B01D102239F
:10270000B2E07B68012283F83C207B681B689B68F1
:1027100003F00103012B18D07B681B689A687B6863
:102720001B6842F001029A60524B1B68524AA2FB9E
:1027300003239A0C13465B001344BB6002E0BB68A2
:10274000013BBB60BB68002BF9D17B681B689B68B1
:1027500003F00103012B7AD17B681B6C23F4E06347
:1027600023F0010343F480727B681A647B681B6862
:102770005B6803F48063002B07D07B681B6C23F439
:10278000405343F480527B681A647B681B6C03F4EB
:102790008053B3F5805F06D17B685B6C23F0060243
:1027A0007B685A6402E07B6800225A647B680022DE
:1027B00083F83C20314BFB607B681B686FF0220282
:1027C0001A60FB685B6803F01F03002B2AD17B684B
:1027D0001B682B4A934215D07B681B68294A934299
:1027E00005D1264B5B6803F01F03002B0AD07B68E2
:1027F0001B68254A934236D1204B5B6803F01003D7
:10280000002B30D17B681B689B6803F04053002B82
:1028100029D17B681B689A687B681B6842F08042FC
:102820009A6020E07B681B68154A93421BD17B6845
:102830001B689B6803F04053002B14D17B681B6816
:102840009A687B681B6842F080429A600BE07B6864
:102850001B6C43F010027B681A647B685B6C43F06E
:1028600001027B685A64002318461437BD465DF8A0
:10287000047B70475400002083DE1B43002301408B
:1028800000200140002101400022014080B483B0BB
:1028900000AF78607B681B68DB6C18460C37BD4660
:1028A0005DF8047B7047000080B485B000AF7860AD
:1028B00039600023BB607B6893F83C30012B01D169
:1028C000022305E17B68012283F83C203B681B68FA
:1028D000092B25D97B681B68D9683B681B689BB2AC
:1028E0001A4613465B0013441E3B072202FA03F309
:1028F000DA437B681B680A40DA607B681B68D9682A
:102900003B689A683B681B689BB2184603465B00AD
:1029100003441E3B9A407B681B680A43DA6022E04E
:102920007B681B6819693B681B689BB21A46134693
:102930005B001344072202FA03F3DA437B681B6847
:102940000A401A617B681B6819693B689A683B6892
:102950001B689BB2184603465B0003449A407B68A1
:102960001B680A431A613B685B68062B24D87B68A6
:102970001B68596B3B685A6813469B001344053B20
:102980001F2202FA03F3DA437B681B680A405A638A
:102990007B681B68596B3B681B689BB218463B6899
:1029A0005A6813469B001344053B00FA03F27B6808
:1029B0001B680A435A634CE03B685B680C2B24D8C5
:1029C0007B681B68196B3B685A6813469B0013446D
:1029D000233B1F2202FA03F3DA437B681B680A4099
:1029E0001A637B681B68196B3B681B689BB21846AF
:1029F0003B685A6813469B001344233B00FA03F2DA
:102A00007B681B680A431A6323E07B681B68D96AEA
:102A10003B685A6813469B001344413B1F2202FA4D
:102A200003F3DA437B681B680A40DA627B681B6841
:102A3000D96A3B681B689BB218463B685A681346C4
:102A40009B001344413B00FA03F27B681B680A4376
:102A5000DA62224BFB607B681B68214A934209D1F2
:102A60003B681B68122B05D1FB685B6843F480024E
:102A7000FB685A607B681B68194A934223D13B6804
:102A80001B68102B03D03B681B68112B1BD1FB6804
:102A90005B6843F40002FB685A603B681B68102BBC
:102AA00011D1104B1B68104AA2FB03239A0C13464A
:102AB0009B0013445B00BB6002E0BB68013BBB6052
:102AC000BB68002BF9D17B68002283F83C200023EF
:102AD00018461437BD465DF8047B7047002301405B
:102AE000002001405400002083DE1B4380B485B0E9
:102AF00000AF7860794BFB60FB685B6823F4403281
:102B0000FB685A60FB685A687B685B681A43FB681D
:102B10005A607B681B685A687B681B6822F4807265
:102B20005A607B681B6859687B681B691A027B685E
:102B30001B680A435A607B681B685A687B681B687D
:102B400022F040725A607B681B6859687B689A68FB
:102B50007B681B680A435A607B681B689A687B68BD
:102B60001B6822F400629A607B681B6899687B6826
:102B7000DA687B681B680A439A607B689B6A584ADC
:102B8000934222D07B681B689A687B681B6822F09E
:102B900070629A607B681B6899687B689A6A7B6838
:102BA0001B680A439A607B681B689A687B681B688D
:102BB00022F040529A607B681B6899687B68DA6AE9
:102BC0007B681B680A439A600FE07B681B689A6801
:102BD0007B681B6822F070629A607B681B689A6849
:102BE0007B681B6822F040529A607B681B689A6879
:102BF0007B681B6822F002029A607B681B689968F8
:102C00007B681B7E5A007B681B680A439A607B685E
:102C100093F82030002B1BD07B681B685A687B68B8
:102C20001B6842F400625A607B681B685A687B68C4
:102C30001B6822F460425A607B681B6859687B6895
:102C40005B6A013B5A037B681B680A435A6007E0D2
:102C50007B681B685A687B681B6822F400625A60B4
:102C60007B681B68DA6A7B681B6822F47002DA6290
:102C70007B681B68D96A7B68DB69013B1A057B6846
:102C80001B680A43DA627B681B689A687B681B686A
:102C900022F400729A607B681B6899687B6893F8DD
:102CA00030305A027B681B680A439A607B681B6855
:102CB0009A687B681B6822F480629A607B681B6854
:102CC00099687B685B699A027B681B680A439A6013
:102CD00000BF1437BD465DF8047B704700230140F8
:102CE0000100000F80B584B000AF78607B68002BD6
:102CF00001D10123EDE07B6893F82030DBB2002B9B
:102D000002D17868FFF78EF97B681B681A687B68C8
:102D10001B6842F001021A60FFF772FCF86012E0D3
:102D2000FFF76EFC0246FB68D31A0A2B0BD97B68AF
:102D30005B6A43F400327B685A627B68052283F841
:102D400020200123C5E07B681B685B6803F001035A
:102D5000002BE5D07B681B681A687B681B6822F033
:102D600002021A60FFF74CFCF86012E0FFF748FC23
:102D70000246FB68D31A0A2B0BD97B685B6A43F4C3
:102D800000327B685A627B68052283F82020012389
:102D90009FE07B681B685B6803F00203002BE5D1B2
:102DA0007B681B7E012B08D17B681B681A687B68D7
:102DB0001B6842F080021A6007E07B681B681A6893
:102DC0007B681B6822F080021A607B685B7E012BA7
:102DD00008D17B681B681A687B681B6842F0400258
:102DE0001A6007E07B681B681A687B681B6822F022
:102DF00040021A607B689B7E012B08D17B681B68B0
:102E00001A687B681B6842F020021A6007E07B6842
:102E10001B681A687B681B6822F020021A607B68B6
:102E2000DB7E012B08D17B681B681A687B681B68F6
:102E300022F010021A6007E07B681B681A687B6842
:102E40001B6842F010021A607B681B7F012B08D1BF
:102E50007B681B681A687B681B6842F008021A606E
:102E600007E07B681B681A687B681B6822F0080211
:102E70001A607B685B7F012B08D17B681B681A682E
:102E80007B681B6842F004021A6007E07B681B68DD
:102E90001A687B681B6822F004021A607B689A68D3
:102EA0007B68DB681A437B681B691A437B685B6934
:102EB00042EA03017B685B685A1E7B681B680A4311
:102EC000DA617B6800225A627B68012283F8202045
:102ED000002318461037BD4680BD000080B487B07F
:102EE00000AF786039607B681B687B617B6893F812
:102EF0002030FB74FB7C012B03D0FB7C022B40F0C9
:102F0000BE80654B7B617B69D3F8003243F00102E0
:102F10007B69C3F800227B69D3F8003223F47C522A
:102F20007B69C3F800227B69D3F800223B685B6AA7
:102F30001B021A437B69C3F800223B685B6903F0FC
:102F40001F03012202FA03F3FB607B69D3F81C2202
:102F5000FB68DB431A407B69C3F81C223B68DB69D2
:102F6000002B23D17B69D3F80C22FB68DB431A408A
:102F70007B69C3F80C223B68DB6819043B685B681B
:102F80009BB23A68526919437B69483243F8321060
:102F90003B689B6819043B681B689AB23B685B6995
:102FA0000A4379694833DB000B445A603B68DB69AC
:102FB000012B22D17B69D3F80C22FB681A437B6971
:102FC000C3F80C223B681B6819043B685B689BB222
:102FD0003A68526919437B69483243F832103B68BA
:102FE0009B6819043B68DB689AB23B685B690A43DB
:102FF00079694833DB000B445A603B689B69002BBE
:1030000009D17B69D3F80422FB68DB431A407B6952
:10301000C3F8042207E07B69D3F80422FB681A4353
:103020007B69C3F804223B681B69002B09D17B69CB
:10303000D3F81422FB68DB431A407B69C3F81422DF
:1030400007E07B69D3F81422FB681A437B69C3F855
:1030500014223B681B6A012B07D17B69D3F81C2221
:10306000FB681A437B69C3F81C227B69D3F80032E2
:1030700023F001027B69C3F80022002306E07B688D
:103080005B6A43F480227B685A62012318461C372E
:10309000BD465DF8047B70470064004080B584B095
:1030A00000AF78607B6893F82030DBB2012B2ED123
:1030B0007B68022283F820207B681B681A687B6883
:1030C0001B6822F001021A60FFF79AFAF86012E01A
:1030D000FFF796FA0246FB68D31A0A2B0BD97B68D6
:1030E0005B6A43F400327B685A627B68052283F88E
:1030F0002020012312E07B681B685B6803F001035A
:10310000002BE5D17B6800225A62002306E07B6831
:103110005B6A43F400227B685A6201231846103729
:10312000BD4680BD80B489B000AFF860B9607A60F8
:103130003B60FB6893F82030FB77FB681B689B685B
:10314000BB61FB7F012B03D0FB7F022B40F0B880DB
:10315000BB6903F08063002B0AD1BB6903F00063F5
:10316000002B05D1BB6903F08053002B00F0A08039
:10317000BB691B0E03F003037B617B69022B07D93C
:10318000FB685B6A43F40002FB685A6201239EE01D
:1031900001227B699A403B681A60BB689B68002BE0
:1031A0000DD1BB681B685A05BB68DB68F968096804
:1031B0001A437B6918331B010B441A600FE0BB688C
:1031C0005B68DA00BB689B681A43BB68DB68F96818
:1031D00009681A437B6918331B010B441A60FB68AA
:1031E0001968BB681A697B6918331B010B440433E7
:1031F0001A60BB681B7D012B11D1FB681A687B69C3
:1032000018331B01134404331B68FA68116843F434
:1032100080727B6918331B010B4404331A607B688E
:1032200007331B781A067B6806331B781B041A4386
:103230007B6805331B781B0213437A6804321278CB
:103240001046FA68116843EA00027B691B010B44CF
:1032500003F5C6731A607B6803331B781A067B6814
:1032600002331B781B041A437B6801331B781B0253
:1032700013437A6812781046FA68116843EA00022C
:103280007B691B010B4403F5C4731A60FB681A6861
:103290007B6918331B0113441B68FA68116843F0FB
:1032A00001027B6918331B010B441A6000230EE0F6
:1032B000FB685B6A43F40012FB685A62012306E074
:1032C000FB685B6A43F48022FB685A62012318465C
:1032D0002437BD465DF8047B704780B487B000AFEB
:1032E000F860B9607A603B60FB6893F82030FB754A
:1032F000FB7D012B03D0FB7D022B40F0F380BB68EC
:10330000002B0ED1FB681B68DB6803F00303002B66
:1033100016D1FB685B6A43F40012FB685A62012312
:10332000E7E0FB681B681B6903F00303002B07D170
:10333000FB685B6A43F40012FB685A620123D8E021
:10334000FB681A68BB681B331B0113441B6803F03E
:1033500004027B689A607B689B68002B0CD1FB6839
:103360001A68BB681B331B0113441B685B0DC3F356
:103370000A027B681A600BE0FB681A68BB681B33A3
:103380001B0113441B68DB0823F060427B685A6012
:10339000FB681A68BB681B331B0113441B6803F0EE
:1033A00002027B68DA60FB681A68BB681B331B018A
:1033B000134404331B6803F00F027B681A61FB6837
:1033C0001A68BB681B331B01134404331B681B0AB8
:1033D000DAB27B689A61FB681A68BB681B331B0111
:1033E000134404331B681B0C9AB27B685A61FB6858
:1033F0001A68BB681B01134403F5DC731B68DAB25F
:103400003B681A70FB681A68BB681B01134403F51C
:10341000DC731B681A0A3B680133D2B21A70FB686E
:103420001A68BB681B01134403F5DC731B681A0C94
:103430003B680233D2B21A70FB681A68BB681B0182
:10344000134403F5DC731B681A0E3B680333D2B2D6
:103450001A70FB681A68BB681B01134403F5DE731E
:103460001A683B680433D2B21A70FB681A68BB68EA
:103470001B01134403F5DE731B681A0A3B6805330E
:10348000D2B21A70FB681A68BB681B01134403F5BB
:10349000DE731B681A0C3B680633D2B21A70FB68E5
:1034A0001A68BB681B01134403F5DE731B681A0E10
:1034B0003B680733D2B21A70BB68002B08D1FB6897
:1034C0001B68DA68FB681B6842F02002DA6007E0DC
:1034D000FB681B681A69FB681B6842F020021A61CE
:1034E000002306E0FB685B6A43F48022FB685A62B3
:1034F000012318461C37BD465DF8047B704780B435
:1035000085B000AF786039607B6893F82030FB733A
:10351000FB7B012B02D0FB7B022B09D17B681B6854
:1035200059697B681B683A680A435A61002306E0C0
:103530007B685B6A43F480227B685A6201231846E9
:103540001437BD465DF8047B704780B58AB000AF84
:10355000786000237B627B681B685B693B627B68E9
:103560001B685B68FB617B681B689B68BB617B6851
:103570001B68DB687B617B681B681B693B617B6840
:103580001B689B69FB603B6A03F00103002B7CD046
:10359000BB6903F00103002B23D07B681B68012269
:1035A0009A60BB6903F00203002B03D0786800F037
:1035B00083F916E0BB6903F00403002B04D07B6A97
:1035C00043F400637B620CE0BB6903F00803002B4B
:1035D00004D07B6A43F480537B6202E0786800F099
:1035E00089F9BB6903F48073002B24D07B681B68C6
:1035F0004FF480729A60BB6903F40073002B03D010
:10360000786800F063F916E0BB6903F48063002B6F
:1036100004D07B6A43F400537B620CE0BB6903F483
:103620000063002B04D07B6A43F480437B6202E09A
:10363000786800F069F9BB6903F48033002B24D06B
:103640007B681B684FF480329A60BB6903F40033D7
:10365000002B03D0786800F043F916E0BB6903F44F
:103660008023002B04D07B6A43F400437B620CE090
:10367000BB6903F40023002B04D07B6A43F480333E
:103680007B6202E0786800F049F93B6A03F00803C6
:10369000002B0CD07B6903F01003002B07D07B6A52
:1036A00043F400737B627B681B681022DA603B6A1C
:1036B00003F00403002B0BD07B6903F00803002BFD
:1036C00006D07B681B680822DA60786800F030F961
:1036D0003B6A03F00203002B09D07B681B68DB68A0
:1036E00003F00303002B02D07868FEF75FF83B6A13
:1036F00003F04003002B0CD03B6903F01003002BB8
:1037000007D07B6A43F480637B627B681B6810226E
:103710001A613B6A03F02003002B0BD03B6903F0D6
:103720000803002B06D07B681B6808221A617868A2
:1037300000F012F93B6A03F01003002B09D07B68FC
:103740001B681B6903F00303002B02D0786800F0AC
:10375000F9F83B6A03F40033002B0BD0FB6903F04C
:103760001003002B06D07B681B6810225A60786813
:1037700000F0FCF83B6A03F48033002B0BD0FB69AC
:1037800003F00803002B06D07B681B6808225A60F0
:10379000786800F0F5F83B6A03F40043002B7BD017
:1037A000FB6903F00403002B72D03B6A03F48073BF
:1037B000002B08D0FB6803F00103002B03D07B6AC9
:1037C00043F001037B623B6A03F40073002B08D0D3
:1037D000FB6803F00203002B03D07B6A43F0020373
:1037E0007B623B6A03F48063002B08D0FB6803F024
:1037F0000403002B03D07B6A43F004037B623B6A23
:1038000003F40063002B43D0FB6803F07003002B2C
:103810003ED0FB6803F07003602B2BD0602B2ED8BA
:10382000502B22D0502B2AD8402B19D0402B26D8F1
:10383000302B10D0302B22D8102B02D0202B05D0CB
:103840001DE07B6A43F008037B6219E07B6A43F06A
:1038500010037B6214E07B6A43F020037B620FE07D
:103860007B6A43F040037B620AE07B6A43F080039B
:103870007B6205E07B6A43F480737B6200E000BFFB
:103880007B681B689A697B681B6822F070029A61EA
:103890007B681B6804225A607B6A002B08D07B6817
:1038A0005A6A7B6A1A437B685A62786800F072F839
:1038B00000BF2837BD4680BD80B483B000AF7860BC
:1038C00000BF0C37BD465DF8047B704780B483B001
:1038D00000AF786000BF0C37BD465DF8047B7047D1
:1038E00080B483B000AF786000BF0C37BD465DF890
:1038F000047B704780B483B000AF786000BF0C37A2
:10390000BD465DF8047B704780B483B000AF78603B
:1039100000BF0C37BD465DF8047B704780B483B0B0
:1039200000AF786000BF0C37BD465DF8047B704780
:1039300080B483B000AF786000BF0C37BD465DF83F
:10394000047B704780B483B000AF786000BF0C3751
:10395000BD465DF8047B704780B483B000AF7860EB
:1039600000BF0C37BD465DF8047B704780B483B060
:1039700000AF786000BF0C37BD465DF8047B704730
:1039800080B483B000AF786000BF0C37BD465DF8EF
:10399000047B704780B483B000AF786000BF0C3701
:1039A000BD465DF8047B704780B485B000AF786099
:1039B0007B6803F00703FB600C4BDB68BB60BA68F5
:1039C0004FF6FF031340BB60FB681A02BB6813434A
:1039D00043F0BF6343F40033BB60044ABB68D36069
:1039E00000BF1437BD465DF8047B704700ED00E072
:1039F00080B400AF044BDB681B0A03F007031846D2
:103A0000BD465DF8047B704700ED00E080B483B0F4
:103A100000AF0346FB7197F90730002B0BDBFB79F6
:103A200003F01F02074997F907305B09012000FAEC
:103A300002F241F8232000BF0C37BD465DF8047B3D
:103A4000704700BF00E100E080B483B000AF0346E0
:103A50003960FB7197F90730002B0ADB3B68DAB25B
:103A60000C4997F907301201D2B20B4483F80023B6
:103A70000AE03B68DAB20849FB7903F00F03043B24
:103A80001201D2B20B441A7600BF0C37BD465DF866
:103A9000047B704700E100E000ED00E080B489B0F5
:103AA00000AFF860B9607A60FB6803F00703FB6160
:103AB000FB69C3F10703042B28BF0423BB61FB6927
:103AC0000433062B02D9FB69033B00E000237B6132
:103AD0004FF0FF32BB6902FA03F3DA43BB681A40C6
:103AE0007B699A404FF0FF317B6901FA03F3D943B8
:103AF0007B680B40134318462437BD465DF8047BB2
:103B00007047000080B582B000AF78607B68013BF1
:103B1000B3F1807F01D301230FE00A4A7B68013BA8
:103B200053600F214FF0FF30FFF78EFF054B00224F
:103B30009A60044B07221A60002318460837BD46D6
:103B400080BD00BF10E000E080B582B000AF7860BB
:103B50007868FFF729FF00BF0837BD4680BD80B5F4
:103B600086B000AF0346B9607A60FB7300237B61C7
:103B7000FFF73EFF78617A68B9687869FFF78EFFD2
:103B8000024697F90F3011461846FFF75DFF00BF58
:103B90001837BD4680BD80B582B000AF0346FB71CB
:103BA00097F907301846FFF731FF00BF0837BD46C9
:103BB00080BD80B582B000AF78607868FFF7A2FF63
:103BC000034618460837BD4680BD000080B489B062
:103BD00000AF7860396000237B6100233B610023E4
:103BE000BB610023FB616BE10122FB6902FA03F375
:103BF0007B613B681B687A6913403B613A697B696A
:103C00009A4240F05A813B685B6803F00303012B42
:103C100005D03B685B6803F00303022B30D17B685F
:103C20009B68BB61FB695B00032202FA03F3DB4381
:103C3000BA691340BB613B68DA68FB695B0002FA52
:103C400003F3BA691343BB617B68BA699A607B6806
:103C50005B68BB610122FB6902FA03F3DB43BA69CB
:103C60001340BB613B685B681B0903F00102FB6901
:103C700002FA03F3BA691343BB617B68BA695A60FD
:103C80003B685B6803F00303032B17D07B68DB689A
:103C9000BB61FB695B00032202FA03F3DB43BA69F1
:103CA0001340BB613B689A68FB695B0002FA03F34F
:103CB000BA691343BB617B68BA69DA603B685B68C9
:103CC00003F00303022B23D1FB69DA087B68083277
:103CD00053F82230BB61FB6903F007039B000F22FE
:103CE00002FA03F3DB43BA691340BB613B681A690C
:103CF000FB6903F007039B0002FA03F3BA6913435D
:103D0000BB61FB69DA087B680832B96943F82210A5
:103D10007B681B68BB61FB695B00032202FA03F34B
:103D2000DB43BA691340BB613B685B6803F0030285
:103D3000FB695B0002FA03F3BA691343BB617B685A
:103D4000BA691A603B685B6803F44033002B00F0EB
:103D5000B4800023FB60604B5B6C5F4A43F480439C
:103D600053645D4B5B6C03F48043FB60FB685B4A10
:103D7000FB699B08023352F82330BB61FB6903F0F7
:103D800003039B000F2202FA03F3DB43BA691340DB
:103D9000BB617B68524A93422BD07B68514A934265
:103DA00025D07B68504A93421FD07B684F4A93428C
:103DB00019D07B684E4A934213D07B684D4A934298
:103DC0000DD07B684C4A934207D07B684B4A9342A4
:103DD00001D107230EE008230CE006230AE00523A7
:103DE00008E0042306E0032304E0022302E00123A9
:103DF00000E00023FA6902F0030292009340BA69DE
:103E00001343BB613549FB699B080233BA6941F82A
:103E100023203B4B1B68BB613B69DB43BA69134002
:103E2000BB613B685B6803F48033002B03D0BA6945
:103E30003B691343BB61324ABB691360304B5B681B
:103E4000BB613B69DB43BA691340BB613B685B689C
:103E500003F40033002B03D0BA693B691343BB6101
:103E6000274ABB695360264B9B68BB613B69DB43B8
:103E7000BA691340BB613B685B6803F48013002B95
:103E800003D0BA693B691343BB611D4ABB699360A8
:103E90001B4BDB68BB613B69DB43BA691340BB6109
:103EA0003B685B6803F40013002B03D0BA693B69DD
:103EB0001343BB61124ABB69D360FB690133FB61E9
:103EC000FB690F2B7FF690AE00BF00BF2437BD46C5
:103ED0005DF8047B704700BF0038024000380140A5
:103EE000000002400004024000080240000C0240B2
:103EF000001002400014024000180240001C024062
:103F0000003C014080B485B000AF78600B467B80F8
:103F10007B681A697B881340002B02D00123FB7356
:103F200001E00023FB73FB7B18461437BD465DF8A8
:103F3000047B704780B483B000AF78600B467B8011
:103F400013467B707B78002B03D07A887B689A615C
:103F500003E07B881A047B689A6100BF0C37BD467A
:103F60005DF8047B7047000080B586B000AF7860D4
:103F70007B68002B01D1012364E27B681B6803F09E
:103F80000103002B75D0A34B9B6803F00C03042B9B
:103F90000CD0A04B9B6803F00C03082B12D19D4B57
:103FA0005B6803F48003B3F5800F0BD1994B1B685A
:103FB00003F40033002B5BD07B685B68002B57D188
:103FC00001233FE27B685B68B3F5803F06D1914BEC
:103FD0001B68904A43F4803313601DE07B685B6884
:103FE000B3F5A02F0CD18B4B1B688A4A43F4802376
:103FF0001360884B1B68874A43F4803313600BE0DF
:10400000844B1B68834A23F480331360814B1B6805
:10401000804A23F4802313607B685B68002B13D0F5
:10402000FEF7EEFA386108E0FEF7EAFA02463B696D
:10403000D31A642B01D9032304E2764B1B6803F4E3
:104040000033002BF0D014E0FEF7DAFA386108E014
:10405000FEF7D6FA02463B69D31A642B01D9032333
:10406000F0E16C4B1B6803F40033002BF0D100E04F
:1040700000BF7B681B6803F00203002B63D0654B15
:104080009B6803F00C03002B0BD0624B9B6803F082
:104090000C03082B1CD15F4B5B6803F48003002BDF
:1040A00016D15C4B1B6803F00203002B05D07B6824
:1040B000DB68012B01D00123C4E1564B1B6823F0C0
:1040C000F8027B681B69DB00524913430B603AE03E
:1040D0007B68DB68002B20D04F4B01221A60FEF773
:1040E0008FFA386108E0FEF78BFA02463B69D31A73
:1040F000022B01D90323A5E1464B1B6803F0020301
:10410000002BF0D0434B1B6823F0F8027B681B693F
:10411000DB00404913430B6015E03F4B00221A605F
:10412000FEF76EFA386108E0FEF76AFA02463B696C
:10413000D31A022B01D9032384E1364B1B6803F009
:104140000203002BF0D17B681B6803F00803002BEF
:1041500030D07B685B69002B16D0304B01221A608F
:10416000FEF74EFA386108E0FEF74AFA02463B696C
:10417000D31A022B01D9032364E1264B5B6F03F0B2
:104180000203002BF0D015E0244B00221A60FEF74A
:1041900037FA386108E0FEF733FA02463B69D31A72
:1041A000022B01D903234DE11A4B5B6F03F002038D
:1041B000002BF0D17B681B6803F00403002B00F098
:1041C000A0800023FB75134B1B6C03F08053002B66
:1041D0000FD10023BB600F4B1B6C0E4A43F0805382
:1041E00013640C4B1B6C03F08053BB60BB68012352
:1041F000FB750B4B1B6803F48073002B21D1084B1C
:104200001B68074A43F480731360FEF7F9F93861BD
:1042100011E000BF0038024000004742800E4742D4
:1042200000700040FEF7ECF902463B69D31A022BFE
:1042300001D9032306E1854B1B6803F48073002B2F
:10424000F0D07B689B68012B06D1814B1B6F804AA5
:1042500043F0010313671CE07B689B68052B0CD1BE
:104260007B4B1B6F7A4A43F004031367784B1B6F39
:10427000774A43F0010313670BE0754B1B6F744AD9
:1042800023F001031367724B1B6F714A23F0040381
:1042900013677B689B68002B15D0FEF7B1F9386176
:1042A0000AE0FEF7ADF902463B69D31A41F28832C3
:1042B000934201D90323C5E0654B1B6F03F0020352
:1042C000002BEED014E0FEF79BF938610AE0FEF710
:1042D00097F902463B69D31A41F28832934201D9D9
:1042E0000323AFE05A4B1B6F03F00203002BEED108
:1042F000FB7D012B05D1564B1B6C554A23F0805397
:1043000013647B689B69002B00F09B80504B9B687B
:1043100003F00C03082B5CD07B689B69022B41D116
:104320004C4B00221A60FEF76BF9386108E0FEF78B
:1043300067F902463B69D31A022B01D9032381E0B6
:10434000434B1B6803F00073002BF0D17B68DA69E4
:104350007B681B6A1A437B685B6A9B011A437B6814
:104360009B6A5B08013B1B041A437B68DB6A1B06E4
:10437000374913434B60374B01221A60FEF740F96F
:10438000386108E0FEF73CF902463B69D31A022B7C
:1043900001D9032356E02E4B1B6803F00073002B5A
:1043A000F0D04EE02B4B00221A60FEF729F938615D
:1043B00008E0FEF725F902463B69D31A022B01D922
:1043C00003233FE0224B1B6803F00073002BF0D166
:1043D00037E07B689B69012B01D1012332E01C4B44
:1043E0005B68FB607B689B69012B28D0FB6803F44A
:1043F00080027B68DB699A4221D1FB6803F03F02AF
:104400007B681B6A9A421AD1FA6847F6C073134058
:104410007A68526A9201934211D1FB6803F44032E8
:104420007B689B6A5B08013B1B049A4207D1FB68CF
:1044300003F070627B68DB6A1B069A4201D001239D
:1044400000E0002318461837BD4680BD00700040CC
:10445000003802406000474280B584B000AF786009
:1044600039607B68002B01D10123CCE0684B1B68CD
:1044700003F007033A689A420CD9654B3A68D2B206
:104480001A70634B1B6803F007033A689A4201D025
:104490000123B8E07B681B6803F00203002B20D0E7
:1044A0007B681B6803F00403002B05D0594B9B6805
:1044B000584A43F4E05393607B681B6803F0080399
:1044C000002B05D0534B9B68524A43F460439360E2
:1044D000504B9B6823F0F0027B689B684D49134367
:1044E0008B607B681B6803F00103002B44D07B6862
:1044F0005B68012B07D1474B1B6803F40033002B8B
:1045000019D101237FE07B685B68022B03D07B68B5
:104510005B68032B07D13F4B1B6803F00073002B34
:1045200009D101236FE03B4B1B6803F00203002B12
:1045300001D1012367E0374B9B6823F003027B68BE
:104540005B68344913438B60FEF75AF8F8600AE061
:10455000FEF756F80246FB68D31A41F288329342BE
:1045600001D903234FE02B4B9B6803F00C027B68BF
:104570005B689B009A42EBD1254B1B6803F0070355
:104580003A689A420CD2224B3A68D2B21A70204B47
:104590001B6803F007033A689A4201D0012332E016
:1045A0007B681B6803F00403002B08D0194B9B6841
:1045B00023F4E0527B68DB68164913438B607B6809
:1045C0001B6803F00803002B09D0124B9B6823F4EF
:1045D00060427B681B69DB000E4913438B6000F06F
:1045E00021F802460B4B9B681B0903F00F030A4995
:1045F000CB5C22FA03F3094A1360094B1B68184687
:10460000FDF7BAFF002318461037BD4680BD00BF36
:10461000003C024000380240AC86000854000020F4
:1046200058000020B0B584B000AF002179600021AF
:10463000F960002139600021B9605249896801F0B0
:104640000C0108290DD0082900F29480002902D01D
:10465000042903D08EE04C4BBB608EE04B4BBB601B
:104660008BE04849496801F03F0179604549496854
:1046700001F48001002924D042494968890908468B
:104680004FF0000140F2FF144FF0000500EA040271
:1046900001EA05033D4901FB03F0002101FB02F1A2
:1046A00044183A49A2FB0101631819467B681A466F
:1046B0004FF00003FBF7DCFD02460B461346FB60A0
:1046C0004AE0304B5B689B091A464FF0000340F20A
:1046D000FF104FF0000102EA000403EA0105204642
:1046E00029464FF000024FF000034B0143EAD0632C
:1046F000420110461946001B61EB05014FF0000214
:104700004FF000038B0143EA90638201121A63EBBE
:1047100001034FF000004FF00001D90041EA52714F
:10472000D00002460B46121945EB03034FF0000080
:104730004FF00001990241EA9251900202460B4665
:10474000104619467B681A464FF00003FBF790FDB0
:1047500002460B461346FB600A4B5B681B0C03F0DA
:10476000030301335B003B60FA683B68B2FBF3F381
:10477000BB6002E0044BBB6000BFBB68184610374B
:10478000BD46B0BD003802400024F40040787D01F1
:1047900080B582B000AF78607B68002B01D1012327
:1047A0007BE07B685B6A002B08D17B685B68B3F5B4
:1047B000827F09D07B680022DA6105E07B680022F5
:1047C0001A617B6800225A617B6800229A627B68CA
:1047D00093F85130DBB2002B06D17B68002283F8BE
:1047E00050207868FDF7CEFC7B68022283F85120C8
:1047F0007B681B681A687B681B6822F040021A609D
:104800007B685B6803F482727B689B6803F40443F3
:104810001A437B68DB6803F400631A437B681B69F7
:1048200003F002031A437B685B6903F001031A4338
:104830007B689B6903F400731A437B68DB6903F0B0
:1048400038031A437B681B6A03F0800342EA0301C2
:104850007B689B6A03F400527B681B680A431A60FA
:104860007B689B691B0C03F004017B685B6A03F0A7
:1048700010027B681B680A435A607B681B68DA6910
:104880007B681B6822F40062DA617B6800225A654B
:104890007B68012283F85120002318460837BD4663
:1048A00080BD80B588B000AFF860B9603B6013464A
:1048B000FB800023FB77FB6893F85030012B01D17C
:1048C000022326E1FB68012283F85020FDF798FEC1
:1048D000B861FB88FB82FB6893F85130DBB2012B97
:1048E00002D00223FB770BE1BB68002B02D0FB88D0
:1048F000002B02D10123FB7702E1FB68032283F83E
:104900005120FB6800225A65FB68BA681A63FB688D
:10491000FA889A86FB68FA88DA86FB6800229A632E
:10492000FB6800229A87FB680022DA87FB68002276
:104930005A64FB6800221A64FB689B68B3F5004F59
:104940000FD1FB681B681A68FB681B6822F04002E5
:104950001A60FB681B681A68FB681B6842F4804297
:104960001A60FB681B681B6803F04003402B07D0EC
:10497000FB681B681A68FB681B6842F040021A60FB
:10498000FB68DB68B3F5006F4BD1FB685B68002BFD
:1049900002D0FB8A012B3ED1FB681B6B1A88FB6897
:1049A0001B68DA60FB681B6B9A1CFB681A63FB6868
:1049B000DB8E9BB2013B9AB2FB68DA862BE0FB6888
:1049C0001B689B6803F00203022B12D1FB681B6B70
:1049D0001A88FB681B68DA60FB681B6B9A1CFB6813
:1049E0001A63FB68DB8E9BB2013B9AB2FB68DA86E6
:1049F00011E0FDF705FE0246BB69D31A3A689A42F8
:104A000003D83B68B3F1FF3F02D13B68002B02D1D2
:104A10000323FB7774E0FB68DB8E9BB2002BCED1C7
:104A20004CE0FB685B68002B02D0FB8A012B40D175
:104A3000FB681A6BFB681B680C3312781A70FB68F2
:104A40001B6B5A1CFB681A63FB68DB8E9BB2013B35
:104A50009AB2FB68DA862CE0FB681B689B6803F05F
:104A60000203022B13D1FB681A6BFB681B680C3323
:104A700012781A70FB681B6B5A1CFB681A63FB6880
:104A8000DB8E9BB2013B9AB2FB68DA8611E0FDF740
:104A9000B7FD0246BB69D31A3A689A4203D83B680D
:104AA000B3F1FF3F02D13B68002B02D10323FB7718
:104AB00026E0FB68DB8E9BB2002BCDD1BA6939684A
:104AC000F86800F0D9FB0346002B02D0FB682022D7
:104AD0005A65FB689B68002B0AD100233B61FB6889
:104AE0001B68DB683B61FB681B689B683B613B693B
:104AF000FB685B6D002B02D00123FB7700E000BF59
:104B0000FB68012283F85120FB68002283F85020C3
:104B1000FB7F18462037BD4680BD80B588B002AF08
:104B2000F860B9603B601346FB800023FB75FB68AF
:104B30005B68B3F5827F12D1FB689B68002B0ED1B6
:104B4000FB68042283F85120FA883B6800931346DF
:104B5000BA68B968F86800F0F1F80346EAE0FB6863
:104B600093F85030012B01D10223E3E0FB680122CE
:104B700083F85020FDF744FD3861FB6893F851300D
:104B8000DBB2012B02D00223FB75CAE0BB68002B0D
:104B900002D0FB88002B02D10123FB75C1E0FB682A
:104BA000042283F85120FB6800225A65FB68BA682A
:104BB0009A63FB68FA889A87FB68FA88DA87FB6849
:104BC00000221A63FB6800229A86FB680022DA86BC
:104BD000FB6800221A64FB6800225A64FB689B6829
:104BE000B3F5004F0FD1FB681B681A68FB681B68A0
:104BF00022F040021A60FB681B681A68FB681B6899
:104C000022F480421A60FB681B681B6803F04003B3
:104C1000402B07D0FB681B681A68FB681B6842F0D2
:104C200040021A60FB68DB68002B62D12EE0FB6853
:104C30001B689B6803F00103012B15D1FB681B68FF
:104C400003F10C02FB689B6B1278D2B21A70FB68FE
:104C50009B6B5A1CFB689A63FB68DB8F9BB2013B22
:104C60009AB2FB68DA8711E0FDF7CAFC02463B699D
:104C7000D31A3A689A4203D83B68B3F1FF3F02D196
:104C80003B68002B02D10323FB754AE0FB68DB8FF6
:104C90009BB2002BCBD131E0FB681B689B6803F013
:104CA0000103012B13D1FB681B68DA68FB689B6B5F
:104CB00092B21A80FB689B6B9A1CFB689A63FB6834
:104CC000DB8F9BB2013B9AB2FB68DA8711E0FDF7FC
:104CD00097FC02463B69D31A3A689A4203D83B686C
:104CE000B3F1FF3F02D13B68002B02D10323FB75D8
:104CF00017E0FB68DB8F9BB2002BCDD13A69396896
:104D0000F86800F053FA0346002B02D0FB6820221B
:104D10005A65FB685B6D002B02D00123FB7500E038
:104D200000BFFB68012283F85120FB68002283F852
:104D30005020FB7D18461837BD4680BD80B58CB02D
:104D400000AFF860B9607A607B800123FB620023CA
:104D500087F82B30FB6893F85030012B01D10223E8
:104D60008AE1FB68012283F85020FDF749FC786254
:104D7000FB6893F8513087F82330FB685B68FB6170
:104D80007B887B8397F82330012B0FD0FB69B3F529
:104D9000827F07D1FB689B68002B03D197F82330F3
:104DA000042B03D0022387F82B305BE1BB68002B78
:104DB00005D07B68002B02D07B88002B03D1012318
:104DC00087F82B304EE1FB6893F85130DBB2042BAF
:104DD00003D0FB68052283F85120FB6800225A6546
:104DE000FB687A689A63FB687A88DA87FB687A8856
:104DF0009A87FB68BA681A63FB687A88DA86FB6868
:104E00007A889A86FB6800221A64FB6800225A643A
:104E1000FB681B681B6803F04003402B07D0FB684E
:104E20001B681A68FB681B6842F040021A60FB6846
:104E3000DB68B3F5006F78D1FB685B68002B02D0AC
:104E40007B8B012B66D1FB681B6B1A88FB681B6888
:104E5000DA60FB681B6B9A1CFB681A63FB68DB8ECD
:104E60009BB2013B9AB2FB68DA8653E0FB681B6891
:104E70009B6803F00203022B1BD1FB68DB8E9BB205
:104E8000002B16D0FB6A012B13D1FB681B6B1A8811
:104E9000FB681B68DA60FB681B6B9A1CFB681A6373
:104EA000FB68DB8E9BB2013B9AB2FB68DA8600237B
:104EB000FB62FB681B689B6803F00103012B19D19F
:104EC000FB68DB8F9BB2002B14D0FB681B68DA6891
:104ED000FB689B6B92B21A80FB689B6B9A1CFB6809
:104EE0009A63FB68DB8F9BB2013B9AB2FB68DA875F
:104EF0000123FB62FDF784FB02467B6AD31ABA6B7F
:104F00009A4207D8BB6BB3F1FF3F03D0032387F866
:104F10002B30A7E0FB68DB8E9BB2002BA6D1FB6891
:104F2000DB8F9BB2002BA1D17CE0FB685B68002B80
:104F300002D07B8B012B6BD1FB681A6BFB681B6863
:104F40000C3312781A70FB681B6B5A1CFB681A63CF
:104F5000FB68DB8E9BB2013B9AB2FB68DA8657E0B6
:104F6000FB681B689B6803F00203022B1CD1FB68E3
:104F7000DB8E9BB2002B17D0FB6A012B14D1FB6890
:104F80001A6BFB681B680C3312781A70FB681B6B7A
:104F90005A1CFB681A63FB68DB8E9BB2013B9AB21A
:104FA000FB68DA860023FB62FB681B689B6803F0E2
:104FB0000103012B19D1FB68DB8F9BB2002B14D0AE
:104FC000FB681B68DA68FB689B6BD2B21A70FB68DF
:104FD0009B6B5A1CFB689A63FB68DB8F9BB2013B9F
:104FE0009AB2FB68DA870123FB62FDF709FB0246F0
:104FF0007B6AD31ABA6B9A4203D8BB6BB3F1FF3FFB
:1050000002D1BB6B002B03D1032387F82B3029E09F
:10501000FB68DB8E9BB2002BA2D1FB68DB8F9BB2BF
:10502000002B9DD17A6AB96BF86800F025F9034628
:10503000002B06D0012387F82B30FB6820225A650D
:1050400010E0FB689B68002B0BD100237B61FB68A1
:105050001B68DB687B61FB681B689B687B617B6905
:1050600000E000BFFB68012283F85120FB680022AA
:1050700083F8502097F82B3018463037BD4680BD56
:1050800080B483B000AF78607B6893F85130DBB2B6
:1050900018460C37BD465DF8047B704780B588B074
:1050A00000AFF860B9603B601346FB71FDF7A8FAEA
:1050B0000246BB6A9B1A3A681344FB61FDF7A0FAEB
:1050C000B861394B1B685B011B0DFA6902FB03F3E6
:1050D0007B6154E03B68B3F1FF3F50D0FDF790FA9D
:1050E0000246BB69D31AFA699A4202D9FB69002BBE
:1050F0003DD1FB681B685A68FB681B6822F0E00220
:105100005A60FB685B68B3F5827F11D1FB689B68CE
:10511000B3F5004F04D0FB689B68B3F5806F07D1EF
:10512000FB681B681A68FB681B6822F040021A6063
:10513000FB689B6AB3F5005F0FD1FB681B681A68B8
:10514000FB681B6822F400521A60FB681B681A682F
:10515000FB681B6842F400521A60FB68012283F866
:105160005120FB68002283F85020032317E07B695D
:10517000002B01D10023FB617B69013B7B61FB6854
:105180001B689A68BB681340BA689A420CBF012337
:105190000023DBB21A46FB799A429BD100231846C2
:1051A0002037BD4680BD00BF5400002080B586B0CA
:1051B00002AFF860B9607A60FB685B68B3F5827F24
:1051C00011D1FB689B68B3F5004F04D0FB689B6866
:1051D000B3F5806F07D1FB681B681A68FB681B6812
:1051E00022F040021A60FB685B68B3F5827F2AD127
:1051F000FB689B68B3F5806F12D07B680093BB6837
:1052000000228021F868FFF749FF0346002B2DD0CC
:10521000FB685B6D43F02002FB685A65032326E0C0
:105220007B680093BB6800220121F868FFF736FF16
:105230000346002B1AD0FB685B6D43F02002FB682D
:105240005A65032313E07B680093BB6800220121A9
:10525000F868FFF723FF0346002B07D0FB685B6D60
:1052600043F02002FB685A65032300E00023184640
:105270001037BD4680BD000080B588B002AFF86031
:10528000B9607A601B4B1B681B4AA2FB03235B0DB2
:105290004FF47A7202FB03F37B61FB685B68B3F542
:1052A000827F12D17B680093BB6800228021F8685E
:1052B000FFF7F4FE0346002B16D0FB685B6D43F04E
:1052C0002002FB685A6503230FE07B69002B0AD09C
:1052D0007B69013B7B61FB681B689B6803F0800373
:1052E000802BF2D000E000BF002318461837BD46DF
:1052F00080BD00BF54000020819F5E1680B582B043
:1053000000AF78607B68002B01D1012341E07B680E
:1053100093F83D30DBB2002B06D17B68002283F886
:105320003C207868FCF796FF7B68022283F83D20DA
:105330007B681A687B6804331946104600F096FAB9
:105340007B68012283F846207B68012283F83E2097
:105350007B68012283F83F207B68012283F840208C
:105360007B68012283F841207B68012283F8422078
:105370007B68012283F843207B68012283F8442064
:105380007B68012283F845207B68012283F83D2059
:10539000002318460837BD4680BD000080B485B0A4
:1053A00000AF78607B6893F83D30DBB2012B01D011
:1053B00001234EE07B68022283F83D207B681B6856
:1053C000DA687B681B6842F00102DA607B681B6860
:1053D000234A934222D07B681B68B3F1804F1DD0D3
:1053E0007B681B681F4A934218D07B681B681E4A63
:1053F000934213D07B681B681C4A93420ED07B6893
:105400001B681B4A934209D07B681B68194A934268
:1054100004D07B681B68184A934211D17B681B68D3
:105420009B6803F00703FB60FB68062B10D07B68CA
:105430001B681A687B681B6842F001021A6007E06B
:105440007B681B681A687B681B6842F001021A605F
:10545000002318461437BD465DF8047B704700BF33
:10546000000001400004004000080040000C004023
:1054700000040140004001400018004080B582B0A7
:1054800000AF78607B681B681B6903F00203022B86
:1054900022D17B681B68DB6803F00203022B1BD15F
:1054A0007B681B686FF002021A617B6801221A7721
:1054B0007B681B689B6903F00303002B03D07868AB
:1054C00000F0B5F905E0786800F0A7F9786800F019
:1054D000B8F97B6800221A777B681B681B6903F0A8
:1054E0000403042B22D17B681B68DB6803F00403F0
:1054F000042B1BD17B681B686FF004021A617B6868
:1055000002221A777B681B689B6903F44073002BA7
:1055100003D0786800F08BF905E0786800F07DF939
:10552000786800F08EF97B6800221A777B681B6828
:105530001B6903F00803082B22D17B681B68DB681A
:1055400003F00803082B1BD17B681B686FF008026F
:105550001A617B6804221A777B681B68DB6903F099
:105560000303002B03D0786800F061F905E0786848
:1055700000F053F9786800F064F97B6800221A772C
:105580007B681B681B6903F01003102B22D17B681A
:105590001B68DB6803F01003102B1BD17B681B68B2
:1055A0006FF010021A617B6808221A777B681B680B
:1055B000DB6903F44073002B03D0786800F037F9FF
:1055C00005E0786800F029F9786800F03AF97B681E
:1055D00000221A777B681B681B6903F00103012B0B
:1055E0000ED17B681B68DB6803F00103012B07D138
:1055F0007B681B686FF001021A617868FCF7CAF8D3
:105600007B681B681B6903F08003802B0ED17B68CD
:105610001B68DB6803F08003802B07D17B681B6865
:105620006FF080021A61786800F0E0FA7B681B680E
:105630001B6903F04003402B0ED17B681B68DB68BD
:1056400003F04003402B07D17B681B686FF04002DA
:105650001A61786800F0FFF87B681B681B6903F02B
:105660002003202B0ED17B681B68DB6803F020032E
:10567000202B07D17B681B686FF020021A617868C5
:1056800000F0AAFA00BF0837BD4680BD80B584B0DF
:1056900000AF786039600023FB737B6893F83C307F
:1056A000012B01D10223B4E07B68012283F83C2066
:1056B0007B68022283F83D207B681B689B68BB6087
:1056C000BB6823F07703BB60BB6823F47F43BB60F8
:1056D0007B681B68BA689A603B681B68B3F5005F1B
:1056E0003ED0B3F5005F00F28780B3F5805F00F035
:1056F0008680B3F5805F7FD8702B1AD0702B7BD853
:10570000602B50D0602B77D8502B3CD0502B73D8C7
:10571000402B58D0402B6FD8302B64D0302B6BD817
:10572000202B60D0202B67D8002B5CD0102B5AD0B8
:1057300062E07B6818683B6899683B685A683B6818
:10574000DB6800F0ADF97B681B689B68BB60BB68D9
:1057500043F07703BB607B681B68BA689A604FE0D0
:105760007B6818683B6899683B685A683B68DB68E7
:1057700000F096F97B681B689A687B681B6842F4A6
:1057800080429A603CE07B6818683B6859683B68D7
:10579000DB681A4600F00AF97B681B68502118463E
:1057A00000F063F92CE07B6818683B6859683B6837
:1057B000DB681A4600F029F97B681B6860211846EF
:1057C00000F053F91CE07B6818683B6859683B6837
:1057D000DB681A4600F0EAF87B681B68402118462F
:1057E00000F043F90CE07B681A683B681B681946B7
:1057F000104600F03AF903E00123FB7300E000BF1C
:105800007B68012283F83D207B68002283F83C20DE
:10581000FB7B18461037BD4680BD80B483B000AF17
:10582000786000BF0C37BD465DF8047B704780B4DC
:1058300083B000AF786000BF0C37BD465DF8047BD5
:10584000704780B483B000AF786000BF0C37BD46AE
:105850005DF8047B704780B483B000AF786000BF10
:105860000C37BD465DF8047B7047000080B485B0FE
:1058700000AF786039607B681B68FB607B68404ADA
:10588000934213D07B68B3F1804F0FD07B683D4AC1
:1058900093420BD07B683C4A934207D07B683B4ADB
:1058A000934203D07B683A4A934208D1FB6823F0C5
:1058B0007003FB603B685B68FA681343FB607B68BE
:1058C0002F4A93422BD07B68B3F1804F27D07B685F
:1058D0002C4A934223D07B682B4A93421FD07B688B
:1058E0002A4A93421BD07B68294A934217D07B688F
:1058F000284A934213D07B68274A93420FD07B6893
:10590000264A93420BD07B68254A934207D07B6896
:10591000244A934203D07B68234A934208D1FB6810
:1059200023F44073FB603B68DB68FA681343FB6059
:10593000FB6823F080023B685B691343FB607B6874
:10594000FA681A603B689A687B68DA623B681A6892
:105950007B689A627B680A4A934203D07B680C4A50
:10596000934203D13B681A697B681A637B68012202
:105970005A6100BF1437BD465DF8047B704700BF15
:10598000000001400004004000080040000C0040FE
:105990000004014000400140004401400048014033
:1059A00000180040001C00400020004080B487B078
:1059B00000AFF860B9607A60FB681B6A7B61FB68C6
:1059C0001B6A23F00102FB681A62FB689B693B615A
:1059D0003B6923F0F0033B617B681B013A69134389
:1059E0003B617B6923F00A037B617A69BB681343DF
:1059F0007B61FB683A699A61FB687A691A6200BF49
:105A00001C37BD465DF8047B704780B487B000AF9B
:105A1000F860B9607A60FB681B6A23F01002FB68CB
:105A20001A62FB689B697B61FB681B6A3B617B694F
:105A300023F470437B617B681B037A6913437B61AA
:105A40003B6923F0A0033B61BB681B013A69134328
:105A50003B61FB687A699A61FB683A691A6200BF28
:105A60001C37BD465DF8047B704780B485B000AF3D
:105A7000786039607B689B68FB60FB6823F070038B
:105A8000FB603A68FB68134343F00703FB607B68E5
:105A9000FA689A6000BF1437BD465DF8047B704712
:105AA00080B487B000AFF860B9607A603B60FB6893
:105AB0009B687B617B6923F47F437B613B681A02AF
:105AC0007B681A43BB6813437A6913437B61FB68A5
:105AD0007A699A6000BF1C37BD465DF8047B704749
